{
  "contractName": "LWT",
  "abi": [
    {
      "inputs": [
        {
          "internalType": "address",
          "name": "_owner",
          "type": "address"
        }
      ],
      "stateMutability": "nonpayable",
      "type": "constructor"
    },
    {
      "anonymous": false,
      "inputs": [
        {
          "indexed": true,
          "internalType": "address",
          "name": "owner",
          "type": "address"
        },
        {
          "indexed": true,
          "internalType": "address",
          "name": "spender",
          "type": "address"
        },
        {
          "indexed": false,
          "internalType": "uint256",
          "name": "value",
          "type": "uint256"
        }
      ],
      "name": "Approval",
      "type": "event"
    },
    {
      "anonymous": false,
      "inputs": [
        {
          "indexed": true,
          "internalType": "address",
          "name": "from",
          "type": "address"
        },
        {
          "indexed": true,
          "internalType": "address",
          "name": "to",
          "type": "address"
        },
        {
          "indexed": false,
          "internalType": "uint256",
          "name": "value",
          "type": "uint256"
        }
      ],
      "name": "Transfer",
      "type": "event"
    },
    {
      "inputs": [],
      "name": "decimals",
      "outputs": [
        {
          "internalType": "uint8",
          "name": "",
          "type": "uint8"
        }
      ],
      "stateMutability": "view",
      "type": "function"
    },
    {
      "inputs": [],
      "name": "name",
      "outputs": [
        {
          "internalType": "string",
          "name": "",
          "type": "string"
        }
      ],
      "stateMutability": "view",
      "type": "function"
    },
    {
      "inputs": [],
      "name": "owner",
      "outputs": [
        {
          "internalType": "address",
          "name": "",
          "type": "address"
        }
      ],
      "stateMutability": "view",
      "type": "function"
    },
    {
      "inputs": [],
      "name": "symbol",
      "outputs": [
        {
          "internalType": "string",
          "name": "",
          "type": "string"
        }
      ],
      "stateMutability": "view",
      "type": "function"
    },
    {
      "inputs": [],
      "name": "totalSupply",
      "outputs": [
        {
          "internalType": "uint256",
          "name": "",
          "type": "uint256"
        }
      ],
      "stateMutability": "view",
      "type": "function"
    },
    {
      "inputs": [
        {
          "internalType": "uint256",
          "name": "newTokensAmount",
          "type": "uint256"
        }
      ],
      "name": "increaseTotalSupply",
      "outputs": [],
      "stateMutability": "nonpayable",
      "type": "function"
    },
    {
      "inputs": [
        {
          "internalType": "address",
          "name": "tokenOwner",
          "type": "address"
        }
      ],
      "name": "balanceOf",
      "outputs": [
        {
          "internalType": "uint256",
          "name": "",
          "type": "uint256"
        }
      ],
      "stateMutability": "view",
      "type": "function"
    },
    {
      "inputs": [
        {
          "internalType": "address",
          "name": "_owner",
          "type": "address"
        },
        {
          "internalType": "address",
          "name": "delegate",
          "type": "address"
        }
      ],
      "name": "allowance",
      "outputs": [
        {
          "internalType": "uint256",
          "name": "",
          "type": "uint256"
        }
      ],
      "stateMutability": "view",
      "type": "function"
    },
    {
      "inputs": [
        {
          "internalType": "address",
          "name": "recipient",
          "type": "address"
        },
        {
          "internalType": "uint256",
          "name": "numTokens",
          "type": "uint256"
        }
      ],
      "name": "transfer",
      "outputs": [
        {
          "internalType": "bool",
          "name": "",
          "type": "bool"
        }
      ],
      "stateMutability": "nonpayable",
      "type": "function"
    },
    {
      "inputs": [
        {
          "internalType": "address",
          "name": "delegate",
          "type": "address"
        },
        {
          "internalType": "uint256",
          "name": "numTokens",
          "type": "uint256"
        }
      ],
      "name": "approve",
      "outputs": [
        {
          "internalType": "bool",
          "name": "",
          "type": "bool"
        }
      ],
      "stateMutability": "nonpayable",
      "type": "function"
    },
    {
      "inputs": [
        {
          "internalType": "address",
          "name": "_owner",
          "type": "address"
        },
        {
          "internalType": "address",
          "name": "buyer",
          "type": "address"
        },
        {
          "internalType": "uint256",
          "name": "numTokens",
          "type": "uint256"
        }
      ],
      "name": "transferFrom",
      "outputs": [
        {
          "internalType": "bool",
          "name": "",
          "type": "bool"
        }
      ],
      "stateMutability": "nonpayable",
      "type": "function"
    }
  ],
  "bytecode": "0x608060405234801561001057600080fd5b50604051610e9a380380610e9a8339818101604052810190610032919061014d565b6302faf080600381905550806000806101000a81548173ffffffffffffffffffffffffffffffffffffffff021916908373ffffffffffffffffffffffffffffffffffffffff160217905550600354600160008060009054906101000a900473ffffffffffffffffffffffffffffffffffffffff1673ffffffffffffffffffffffffffffffffffffffff1673ffffffffffffffffffffffffffffffffffffffff168152602001908152602001600020819055505061017a565b600080fd5b600073ffffffffffffffffffffffffffffffffffffffff82169050919050565b600061011a826100ef565b9050919050565b61012a8161010f565b811461013557600080fd5b50565b60008151905061014781610121565b92915050565b600060208284031215610163576101626100ea565b5b600061017184828501610138565b91505092915050565b610d11806101896000396000f3fe608060405234801561001057600080fd5b50600436106100a95760003560e01c8063313ce56711610071578063313ce5671461016657806370a08231146101845780638da5cb5b146101b457806395d89b41146101d2578063a9059cbb146101f0578063dd62ed3e14610220576100a9565b806306fdde03146100ae578063095ea7b3146100cc57806318160ddd146100fc5780631d43cc981461011a57806323b872dd14610136575b600080fd5b6100b6610250565b6040516100c39190610979565b60405180910390f35b6100e660048036038101906100e19190610a34565b610289565b6040516100f39190610a8f565b60405180910390f35b6101046103bc565b6040516101119190610ab9565b60405180910390f35b610134600480360381019061012f9190610ad4565b6103c6565b005b610150600480360381019061014b9190610b01565b610459565b60405161015d9190610a8f565b60405180910390f35b61016e6105e3565b60405161017b9190610b70565b60405180910390f35b61019e60048036038101906101999190610b8b565b6105e8565b6040516101ab9190610ab9565b60405180910390f35b6101bc610631565b6040516101c99190610bc7565b60405180910390f35b6101da610655565b6040516101e79190610979565b60405180910390f35b61020a60048036038101906102059190610a34565b61068e565b6040516102179190610a8f565b60405180910390f35b61023a60048036038101906102359190610be2565b610859565b6040516102479190610ab9565b60405180910390f35b6040518060400160405280600781526020017f4c5754436f696e0000000000000000000000000000000000000000000000000081525081565b600081600260008060009054906101000a900473ffffffffffffffffffffffffffffffffffffffff1673ffffffffffffffffffffffffffffffffffffffff1673ffffffffffffffffffffffffffffffffffffffff16815260200190815260200160002060008573ffffffffffffffffffffffffffffffffffffffff1673ffffffffffffffffffffffffffffffffffffffff168152602001908152602001600020819055508273ffffffffffffffffffffffffffffffffffffffff1660008054906101000a900473ffffffffffffffffffffffffffffffffffffffff1673ffffffffffffffffffffffffffffffffffffffff167f8c5be1e5ebec7d5bd14f71427d1e84f3dd0314c0f7b2291e5b200ac8c7c3b925846040516103aa9190610ab9565b60405180910390a36001905092915050565b6000600354905090565b80600360008282546103d89190610c51565b9250508190555080600160008060009054906101000a900473ffffffffffffffffffffffffffffffffffffffff1673ffffffffffffffffffffffffffffffffffffffff1673ffffffffffffffffffffffffffffffffffffffff168152602001908152602001600020600082825461044f9190610c51565b9250508190555050565b6000600160008573ffffffffffffffffffffffffffffffffffffffff1673ffffffffffffffffffffffffffffffffffffffff168152602001908152602001600020548211156104a757600080fd5b81600160008673ffffffffffffffffffffffffffffffffffffffff1673ffffffffffffffffffffffffffffffffffffffff16815260200190815260200160002060008282546104f69190610ca7565b9250508190555081600160008573ffffffffffffffffffffffffffffffffffffffff1673ffffffffffffffffffffffffffffffffffffffff168152602001908152602001600020600082825461054c9190610c51565b925050819055508273ffffffffffffffffffffffffffffffffffffffff1660008054906101000a900473ffffffffffffffffffffffffffffffffffffffff1673ffffffffffffffffffffffffffffffffffffffff167fddf252ad1be2c89b69c2b068fc378daa952ba7f163c4a11628f55a4df523b3ef846040516105d09190610ab9565b60405180910390a3600190509392505050565b600281565b6000600160008373ffffffffffffffffffffffffffffffffffffffff1673ffffffffffffffffffffffffffffffffffffffff168152602001908152602001600020549050919050565b60008054906101000a900473ffffffffffffffffffffffffffffffffffffffff1681565b6040518060400160405280600381526020017f4c5754000000000000000000000000000000000000000000000000000000000081525081565b6000600160008060009054906101000a900473ffffffffffffffffffffffffffffffffffffffff1673ffffffffffffffffffffffffffffffffffffffff1673ffffffffffffffffffffffffffffffffffffffff168152602001908152602001600020548211156106fd57600080fd5b81600160008060009054906101000a900473ffffffffffffffffffffffffffffffffffffffff1673ffffffffffffffffffffffffffffffffffffffff1673ffffffffffffffffffffffffffffffffffffffff168152602001908152602001600020600082825461076d9190610ca7565b9250508190555081600160008573ffffffffffffffffffffffffffffffffffffffff1673ffffffffffffffffffffffffffffffffffffffff16815260200190815260200160002060008282546107c39190610c51565b925050819055508273ffffffffffffffffffffffffffffffffffffffff1660008054906101000a900473ffffffffffffffffffffffffffffffffffffffff1673ffffffffffffffffffffffffffffffffffffffff167fddf252ad1be2c89b69c2b068fc378daa952ba7f163c4a11628f55a4df523b3ef846040516108479190610ab9565b60405180910390a36001905092915050565b6000600260008473ffffffffffffffffffffffffffffffffffffffff1673ffffffffffffffffffffffffffffffffffffffff16815260200190815260200160002060008373ffffffffffffffffffffffffffffffffffffffff1673ffffffffffffffffffffffffffffffffffffffff16815260200190815260200160002054905092915050565b600081519050919050565b600082825260208201905092915050565b60005b8381101561091a5780820151818401526020810190506108ff565b83811115610929576000848401525b50505050565b6000601f19601f8301169050919050565b600061094b826108e0565b61095581856108eb565b93506109658185602086016108fc565b61096e8161092f565b840191505092915050565b600060208201905081810360008301526109938184610940565b905092915050565b600080fd5b600073ffffffffffffffffffffffffffffffffffffffff82169050919050565b60006109cb826109a0565b9050919050565b6109db816109c0565b81146109e657600080fd5b50565b6000813590506109f8816109d2565b92915050565b6000819050919050565b610a11816109fe565b8114610a1c57600080fd5b50565b600081359050610a2e81610a08565b92915050565b60008060408385031215610a4b57610a4a61099b565b5b6000610a59858286016109e9565b9250506020610a6a85828601610a1f565b9150509250929050565b60008115159050919050565b610a8981610a74565b82525050565b6000602082019050610aa46000830184610a80565b92915050565b610ab3816109fe565b82525050565b6000602082019050610ace6000830184610aaa565b92915050565b600060208284031215610aea57610ae961099b565b5b6000610af884828501610a1f565b91505092915050565b600080600060608486031215610b1a57610b1961099b565b5b6000610b28868287016109e9565b9350506020610b39868287016109e9565b9250506040610b4a86828701610a1f565b9150509250925092565b600060ff82169050919050565b610b6a81610b54565b82525050565b6000602082019050610b856000830184610b61565b92915050565b600060208284031215610ba157610ba061099b565b5b6000610baf848285016109e9565b91505092915050565b610bc1816109c0565b82525050565b6000602082019050610bdc6000830184610bb8565b92915050565b60008060408385031215610bf957610bf861099b565b5b6000610c07858286016109e9565b9250506020610c18858286016109e9565b9150509250929050565b7f4e487b7100000000000000000000000000000000000000000000000000000000600052601160045260246000fd5b6000610c5c826109fe565b9150610c67836109fe565b9250827fffffffffffffffffffffffffffffffffffffffffffffffffffffffffffffffff03821115610c9c57610c9b610c22565b5b828201905092915050565b6000610cb2826109fe565b9150610cbd836109fe565b925082821015610cd057610ccf610c22565b5b82820390509291505056fea26469706673582212205b93edcf5b0648b84c294fcb3574721869354568be73587457c31753bf14822164736f6c634300080a0033",
  "immutableReferences": {},
  "source": "//SPDX-License-Identifier: MIT\r\npragma solidity 0.8;\r\ninterface ERC20Interface {\r\n\r\n    function totalSupply() external view returns(uint256);\r\n    \r\n    function balanceOf(address account) external view returns(uint256);\r\n    \r\n    function allowance(address owner, address spender) external view returns(uint256);\r\n    \r\n    function transfer(address recipient, uint256 amount) external returns(bool);\r\n    \r\n    function approve(address spender, uint256 amount) external returns(bool);\r\n    \r\n    function transferFrom(address sender, address recipient, uint256 amount) external returns(bool);\r\n    \r\n    event Transfer(address indexed from, address indexed to, uint256 value);\r\n    \r\n    event Approval(address indexed owner, address indexed spender, uint256 value);\r\n    \r\n}\r\n\r\ncontract LWT is ERC20Interface {\r\n    \r\n    string public constant name = \"LWTCoin\";\r\n    string public constant symbol = \"LWT\";\r\n    uint8 public constant decimals = 2;\r\n    address public owner;\r\n    \r\n    mapping(address => uint) balances;\r\n    mapping(address => mapping(address => uint)) allowed;\r\n    uint256 totalSupply_;\r\n    \r\n    constructor(address _owner) {\r\n        totalSupply_ = 50000000;\r\n        owner=_owner;\r\n        balances[owner] = totalSupply_;\r\n    }\r\n    \r\n       function totalSupply() public override view returns(uint256) {\r\n        return totalSupply_;\r\n    }\r\n    \r\n     function increaseTotalSupply(uint newTokensAmount) public {\r\n         totalSupply_ += newTokensAmount;\r\n         balances[owner] += newTokensAmount;\r\n     }\r\n    \r\n    function balanceOf(address tokenOwner) public override view returns(uint256) {\r\n        return balances[tokenOwner];   \r\n    }\r\n    \r\n    function allowance(address _owner, address delegate) public override view returns(uint256) {\r\n        return allowed[_owner][delegate];\r\n    }\r\n    \r\n    function transfer(address recipient, uint256 numTokens) public override returns(bool) {\r\n        require(numTokens <= balances[owner]);\r\n        balances[owner] -= numTokens;\r\n        balances[recipient] += numTokens;\r\n        emit Transfer(owner, recipient, numTokens);\r\n        return true;\r\n    }\r\n\r\n \r\n    function approve(address delegate, uint256 numTokens) public override returns(bool) {\r\n        allowed[owner][delegate] = numTokens;\r\n        emit Approval(owner, delegate, numTokens);\r\n        return true;\r\n    }\r\n    \r\n    function transferFrom(address _owner, address buyer, uint256 numTokens) public override returns(bool) {\r\n        require(numTokens <= balances[_owner]);\r\n       // require(numTokens <= allowed[_owner][buyer]);\r\n        balances[_owner] -= numTokens;\r\n        //allowed[_owner][buyer] -= numTokens;\r\n        balances[buyer] += numTokens;\r\n        emit Transfer(owner, buyer, numTokens);\r\n        return true;\r\n    } \r\n}",
  "sourcePath": "C:\\Users\\saide\\Desktop\\smartlottery\\smartlottery-contracts\\contracts\\LWT.sol",
  "compiler": {
    "name": "solc",
    "version": "0.8.10+commit.fc410830.Emscripten.clang"
  },
  "schemaVersion": "3.4.3",
  "updatedAt": "2021-12-06T02:00:58.919Z",
  "devdoc": {
    "kind": "dev",
    "methods": {},
    "version": 1
  },
  "userdoc": {
    "kind": "user",
    "methods": {},
    "version": 1
  }
}