{
  "contractName": "LWTcoin",
  "abi": [
    {
      "inputs": [],
      "stateMutability": "payable",
      "type": "constructor"
    },
    {
      "anonymous": false,
      "inputs": [
        {
          "indexed": false,
          "internalType": "uint256",
          "name": "",
          "type": "uint256"
        },
        {
          "indexed": false,
          "internalType": "address",
          "name": "",
          "type": "address"
        }
      ],
      "name": "purchasedTicket",
      "type": "event"
    },
    {
      "anonymous": false,
      "inputs": [
        {
          "indexed": false,
          "internalType": "uint256",
          "name": "",
          "type": "uint256"
        },
        {
          "indexed": false,
          "internalType": "address",
          "name": "",
          "type": "address"
        }
      ],
      "name": "purchasedTokens",
      "type": "event"
    },
    {
      "anonymous": false,
      "inputs": [
        {
          "indexed": false,
          "internalType": "uint256",
          "name": "",
          "type": "uint256"
        }
      ],
      "name": "winningTicket",
      "type": "event"
    },
    {
      "inputs": [],
      "name": "endtime",
      "outputs": [
        {
          "internalType": "uint256",
          "name": "",
          "type": "uint256"
        }
      ],
      "stateMutability": "view",
      "type": "function"
    },
    {
      "inputs": [],
      "name": "gain",
      "outputs": [
        {
          "internalType": "uint256",
          "name": "",
          "type": "uint256"
        }
      ],
      "stateMutability": "view",
      "type": "function"
    },
    {
      "inputs": [],
      "name": "lotterytime",
      "outputs": [
        {
          "internalType": "uint256",
          "name": "",
          "type": "uint256"
        }
      ],
      "stateMutability": "view",
      "type": "function"
    },
    {
      "inputs": [],
      "name": "tokenaddress",
      "outputs": [
        {
          "internalType": "contract LWT",
          "name": "",
          "type": "address"
        }
      ],
      "stateMutability": "view",
      "type": "function"
    },
    {
      "inputs": [],
      "name": "startLottery",
      "outputs": [],
      "stateMutability": "nonpayable",
      "type": "function"
    },
    {
      "inputs": [
        {
          "internalType": "address",
          "name": "use",
          "type": "address"
        },
        {
          "internalType": "uint256",
          "name": "bonustokens",
          "type": "uint256"
        }
      ],
      "name": "register",
      "outputs": [],
      "stateMutability": "nonpayable",
      "type": "function"
    },
    {
      "inputs": [
        {
          "internalType": "uint256",
          "name": "_tickets",
          "type": "uint256"
        }
      ],
      "name": "buyTicket",
      "outputs": [],
      "stateMutability": "payable",
      "type": "function"
    },
    {
      "inputs": [
        {
          "internalType": "uint256",
          "name": "num",
          "type": "uint256"
        }
      ],
      "name": "UpdateNumberofWinners",
      "outputs": [],
      "stateMutability": "nonpayable",
      "type": "function"
    },
    {
      "inputs": [],
      "name": "generateWinningTicket",
      "outputs": [],
      "stateMutability": "payable",
      "type": "function"
    },
    {
      "inputs": [],
      "name": "settlePayment",
      "outputs": [],
      "stateMutability": "payable",
      "type": "function"
    },
    {
      "inputs": [],
      "name": "seeWinners",
      "outputs": [
        {
          "internalType": "address[]",
          "name": "",
          "type": "address[]"
        }
      ],
      "stateMutability": "view",
      "type": "function"
    }
  ],
  "bytecode": "0x608060405260006006556101f4600855600060095560016010553360405162000028906200012a565b6200003491906200017d565b604051809103906000f08015801562000051573d6000803e3d6000fd5b506000806101000a81548173ffffffffffffffffffffffffffffffffffffffff021916908373ffffffffffffffffffffffffffffffffffffffff16021790555033600160006101000a81548173ffffffffffffffffffffffffffffffffffffffff021916908373ffffffffffffffffffffffffffffffffffffffff1602179055506103e8600481905550601460058190555030600760006101000a81548173ffffffffffffffffffffffffffffffffffffffff021916908373ffffffffffffffffffffffffffffffffffffffff1602179055506200019a565b610e9a8062001a8383390190565b600073ffffffffffffffffffffffffffffffffffffffff82169050919050565b6000620001658262000138565b9050919050565b620001778162000158565b82525050565b60006020820190506200019460008301846200016c565b92915050565b6118d980620001aa6000396000f3fe60806040526004361061009c5760003560e01c80636d705ebb116100645780636d705ebb146101345780637bf905aa1461015d5780637f520ad814610167578063879c7cde146101925780639926223c146101bb578063b892e838146101e65761009c565b80630f50f5be146100a1578063160344e2146100ab5780632ca126f8146100c25780633feff76d146100ed57806367dd74ca14610118575b600080fd5b6100a9610211565b005b3480156100b757600080fd5b506100c06104b8565b005b3480156100ce57600080fd5b506100d7610539565b6040516100e49190610efc565b60405180910390f35b3480156100f957600080fd5b5061010261053f565b60405161010f9190610f96565b60405180910390f35b610132600480360381019061012d9190610fe2565b610563565b005b34801561014057600080fd5b5061015b6004803603810190610156919061104d565b610986565b005b610165610b6b565b005b34801561017357600080fd5b5061017c610d5d565b6040516101899190610efc565b60405180910390f35b34801561019e57600080fd5b506101b960048036038101906101b49190610fe2565b610d63565b005b3480156101c757600080fd5b506101d0610e0b565b6040516101dd9190610efc565b60405180910390f35b3480156101f257600080fd5b506101fb610e11565b604051610208919061114b565b60405180910390f35b600160009054906101000a900473ffffffffffffffffffffffffffffffffffffffff1673ffffffffffffffffffffffffffffffffffffffff163373ffffffffffffffffffffffffffffffffffffffff161461026b57600080fd5b60035442116102af576040517f08c379a00000000000000000000000000000000000000000000000000000000081526004016102a6906111ca565b60405180910390fd5b6000600d805490509050600081116102fc576040517f08c379a00000000000000000000000000000000000000000000000000000000081526004016102f390611236565b60405180910390fd5b60005b6010548167ffffffffffffffff1610156104b457600082426040516020016103279190611277565b6040516020818303038152906040528051906020012060001c61034a91906112c1565b90506000600d8281548110610362576103616112f2565b5b906000526020600020015490507fdeb6263f5594b114cabe59bc9533219412cc13883ffdc5fd1a746e19d3725b308160405161039e9190610efc565b60405180910390a1600c600082815260200190815260200160002060009054906101000a900473ffffffffffffffffffffffffffffffffffffffff16600e60006101000a81548173ffffffffffffffffffffffffffffffffffffffff021916908373ffffffffffffffffffffffffffffffffffffffff160217905550600f600e60009054906101000a900473ffffffffffffffffffffffffffffffffffffffff169080600181540180825580915050600190039060005260206000200160009091909190916101000a81548173ffffffffffffffffffffffffffffffffffffffff021916908373ffffffffffffffffffffffffffffffffffffffff160217905550505080806104ac90611364565b9150506102ff565b5050565b600160009054906101000a900473ffffffffffffffffffffffffffffffffffffffff1673ffffffffffffffffffffffffffffffffffffffff163373ffffffffffffffffffffffffffffffffffffffff161461051257600080fd5b600060068190555042600a81905550600454600a546105319190611395565b600381905550565b60035481565b60008054906101000a900473ffffffffffffffffffffffffffffffffffffffff1681565b60011515600260003373ffffffffffffffffffffffffffffffffffffffff1673ffffffffffffffffffffffffffffffffffffffff16815260200190815260200160002060010160009054906101000a900460ff161515146105f9576040517f08c379a00000000000000000000000000000000000000000000000000000000081526004016105f09061145d565b60405180910390fd5b600354421061063d576040517f08c379a0000000000000000000000000000000000000000000000000000000008152600401610634906114c9565b60405180910390fd5b600a544211610681576040517f08c379a000000000000000000000000000000000000000000000000000000000815260040161067890611535565b60405180910390fd5b6000600854826106919190611555565b9050806006546106a19190611395565b600681905550600260003373ffffffffffffffffffffffffffffffffffffffff1673ffffffffffffffffffffffffffffffffffffffff1681526020019081526020016000206000015481111561072c576040517f08c379a0000000000000000000000000000000000000000000000000000000008152600401610723906115fb565b60405180910390fd5b60008054906101000a900473ffffffffffffffffffffffffffffffffffffffff1673ffffffffffffffffffffffffffffffffffffffff166323b872dd33600160009054906101000a900473ffffffffffffffffffffffffffffffffffffffff16846040518463ffffffff1660e01b81526004016107ab9392919061164b565b6020604051808303816000875af11580156107ca573d6000803e3d6000fd5b505050506040513d601f19601f820116820180604052508101906107ee91906116ba565b5060005b8281101561098157600061271042336009546040516020016108169392919061172f565b6040516020818303038152906040528051906020012060001c61083991906112c1565b90506009600081548092919061084e9061176c565b9190505550600b60003373ffffffffffffffffffffffffffffffffffffffff1673ffffffffffffffffffffffffffffffffffffffff168152602001908152602001600020819080600181540180825580915050600190039060005260206000200160009091909190915055600d81908060018154018082558091505060019003906000526020600020016000909190919091505533600c600083815260200190815260200160002060006101000a81548173ffffffffffffffffffffffffffffffffffffffff021916908373ffffffffffffffffffffffffffffffffffffffff1602179055507fabb2c65274f37002782994eceb72ad13ae40ec3d441602eadb9fc8985f36f7dd81336040516109659291906117b5565b60405180910390a15080806109799061176c565b9150506107f2565b505050565b600160009054906101000a900473ffffffffffffffffffffffffffffffffffffffff1673ffffffffffffffffffffffffffffffffffffffff163373ffffffffffffffffffffffffffffffffffffffff16146109e057600080fd5b600a544211610a24576040517f08c379a0000000000000000000000000000000000000000000000000000000008152600401610a1b90611535565b60405180910390fd5b80600260008473ffffffffffffffffffffffffffffffffffffffff1673ffffffffffffffffffffffffffffffffffffffff168152602001908152602001600020600001819055506001600260008473ffffffffffffffffffffffffffffffffffffffff1673ffffffffffffffffffffffffffffffffffffffff16815260200190815260200160002060010160006101000a81548160ff02191690831515021790555060008054906101000a900473ffffffffffffffffffffffffffffffffffffffff1673ffffffffffffffffffffffffffffffffffffffff166323b872dd3384846040518463ffffffff1660e01b8152600401610b23939291906117de565b6020604051808303816000875af1158015610b42573d6000803e3d6000fd5b505050506040513d601f19601f82011682018060405250810190610b6691906116ba565b505050565b600160009054906101000a900473ffffffffffffffffffffffffffffffffffffffff1673ffffffffffffffffffffffffffffffffffffffff163373ffffffffffffffffffffffffffffffffffffffff1614610bc557600080fd5b6003544211610c09576040517f08c379a0000000000000000000000000000000000000000000000000000000008152600401610c00906111ca565b60405180910390fd5b60006005546064610c1a9190611815565b90506000601054606460065484610c319190611555565b610c3b9190611849565b610c459190611849565b905060005b6010548167ffffffffffffffff161015610d585760008054906101000a900473ffffffffffffffffffffffffffffffffffffffff1673ffffffffffffffffffffffffffffffffffffffff1663a9059cbb600f8367ffffffffffffffff1681548110610cb857610cb76112f2565b5b9060005260206000200160009054906101000a900473ffffffffffffffffffffffffffffffffffffffff16846040518363ffffffff1660e01b8152600401610d0192919061187a565b6020604051808303816000875af1158015610d20573d6000803e3d6000fd5b505050506040513d601f19601f82011682018060405250810190610d4491906116ba565b508080610d5090611364565b915050610c4a565b505050565b60045481565b600160009054906101000a900473ffffffffffffffffffffffffffffffffffffffff1673ffffffffffffffffffffffffffffffffffffffff163373ffffffffffffffffffffffffffffffffffffffff1614610dbd57600080fd5b6003544210610e01576040517f08c379a0000000000000000000000000000000000000000000000000000000008152600401610df8906114c9565b60405180910390fd5b8060108190555050565b60055481565b60606003544211610e57576040517f08c379a0000000000000000000000000000000000000000000000000000000008152600401610e4e906111ca565b60405180910390fd5b600f805480602002602001604051908101604052809291908181526020018280548015610ed957602002820191906000526020600020905b8160009054906101000a900473ffffffffffffffffffffffffffffffffffffffff1673ffffffffffffffffffffffffffffffffffffffff1681526020019060010190808311610e8f575b5050505050905090565b6000819050919050565b610ef681610ee3565b82525050565b6000602082019050610f116000830184610eed565b92915050565b600073ffffffffffffffffffffffffffffffffffffffff82169050919050565b6000819050919050565b6000610f5c610f57610f5284610f17565b610f37565b610f17565b9050919050565b6000610f6e82610f41565b9050919050565b6000610f8082610f63565b9050919050565b610f9081610f75565b82525050565b6000602082019050610fab6000830184610f87565b92915050565b600080fd5b610fbf81610ee3565b8114610fca57600080fd5b50565b600081359050610fdc81610fb6565b92915050565b600060208284031215610ff857610ff7610fb1565b5b600061100684828501610fcd565b91505092915050565b600061101a82610f17565b9050919050565b61102a8161100f565b811461103557600080fd5b50565b60008135905061104781611021565b92915050565b6000806040838503121561106457611063610fb1565b5b600061107285828601611038565b925050602061108385828601610fcd565b9150509250929050565b600081519050919050565b600082825260208201905092915050565b6000819050602082019050919050565b6110c28161100f565b82525050565b60006110d483836110b9565b60208301905092915050565b6000602082019050919050565b60006110f88261108d565b6111028185611098565b935061110d836110a9565b8060005b8381101561113e57815161112588826110c8565b9750611130836110e0565b925050600181019050611111565b5085935050505092915050565b6000602082019050818103600083015261116581846110ed565b905092915050565b600082825260208201905092915050565b7f4c6f74746572792074696d65206e6f7420656e64656400000000000000000000600082015250565b60006111b460168361116d565b91506111bf8261117e565b602082019050919050565b600060208201905081810360008301526111e3816111a7565b9050919050565b7f4e6f207469636b657420686173206265656e207075726368617365642e000000600082015250565b6000611220601d8361116d565b915061122b826111ea565b602082019050919050565b6000602082019050818103600083015261124f81611213565b9050919050565b6000819050919050565b61127161126c82610ee3565b611256565b82525050565b60006112838284611260565b60208201915081905092915050565b7f4e487b7100000000000000000000000000000000000000000000000000000000600052601260045260246000fd5b60006112cc82610ee3565b91506112d783610ee3565b9250826112e7576112e6611292565b5b828206905092915050565b7f4e487b7100000000000000000000000000000000000000000000000000000000600052603260045260246000fd5b7f4e487b7100000000000000000000000000000000000000000000000000000000600052601160045260246000fd5b600067ffffffffffffffff82169050919050565b600061136f82611350565b915067ffffffffffffffff82141561138a57611389611321565b5b600182019050919050565b60006113a082610ee3565b91506113ab83610ee3565b9250827fffffffffffffffffffffffffffffffffffffffffffffffffffffffffffffffff038211156113e0576113df611321565b5b828201905092915050565b7f706c65617365207265676973746572206265666f726520627579696e6720746960008201527f636b657473000000000000000000000000000000000000000000000000000000602082015250565b600061144760258361116d565b9150611452826113eb565b604082019050919050565b600060208201905081810360008301526114768161143a565b9050919050565b7f4c6f74746572792074696d6520656e6465640000000000000000000000000000600082015250565b60006114b360128361116d565b91506114be8261147d565b602082019050919050565b600060208201905081810360008301526114e2816114a6565b9050919050565b7f4c6f7474657279206e6f74207965742073746172746564000000000000000000600082015250565b600061151f60178361116d565b915061152a826114e9565b602082019050919050565b6000602082019050818103600083015261154e81611512565b9050919050565b600061156082610ee3565b915061156b83610ee3565b9250817fffffffffffffffffffffffffffffffffffffffffffffffffffffffffffffffff04831182151516156115a4576115a3611321565b5b828202905092915050565b7f596f75206e656564206d6f726520746f6b656e732e0000000000000000000000600082015250565b60006115e560158361116d565b91506115f0826115af565b602082019050919050565b60006020820190508181036000830152611614816115d8565b9050919050565b6116248161100f565b82525050565b600061163582610f63565b9050919050565b6116458161162a565b82525050565b6000606082019050611660600083018661161b565b61166d602083018561163c565b61167a6040830184610eed565b949350505050565b60008115159050919050565b61169781611682565b81146116a257600080fd5b50565b6000815190506116b48161168e565b92915050565b6000602082840312156116d0576116cf610fb1565b5b60006116de848285016116a5565b91505092915050565b60008160601b9050919050565b60006116ff826116e7565b9050919050565b6000611711826116f4565b9050919050565b6117296117248261100f565b611706565b82525050565b600061173b8286611260565b60208201915061174b8285611718565b60148201915061175b8284611260565b602082019150819050949350505050565b600061177782610ee3565b91507fffffffffffffffffffffffffffffffffffffffffffffffffffffffffffffffff8214156117aa576117a9611321565b5b600182019050919050565b60006040820190506117ca6000830185610eed565b6117d7602083018461161b565b9392505050565b60006060820190506117f3600083018661161b565b611800602083018561161b565b61180d6040830184610eed565b949350505050565b600061182082610ee3565b915061182b83610ee3565b92508282101561183e5761183d611321565b5b828203905092915050565b600061185482610ee3565b915061185f83610ee3565b92508261186f5761186e611292565b5b828204905092915050565b600060408201905061188f600083018561161b565b61189c6020830184610eed565b939250505056fea2646970667358221220ae435726822d919a878044e7ac473237f02a257026b1b1c6537d35b9959f95a464736f6c634300080a0033608060405234801561001057600080fd5b50604051610e9a380380610e9a8339818101604052810190610032919061014d565b6302faf080600381905550806000806101000a81548173ffffffffffffffffffffffffffffffffffffffff021916908373ffffffffffffffffffffffffffffffffffffffff160217905550600354600160008060009054906101000a900473ffffffffffffffffffffffffffffffffffffffff1673ffffffffffffffffffffffffffffffffffffffff1673ffffffffffffffffffffffffffffffffffffffff168152602001908152602001600020819055505061017a565b600080fd5b600073ffffffffffffffffffffffffffffffffffffffff82169050919050565b600061011a826100ef565b9050919050565b61012a8161010f565b811461013557600080fd5b50565b60008151905061014781610121565b92915050565b600060208284031215610163576101626100ea565b5b600061017184828501610138565b91505092915050565b610d11806101896000396000f3fe608060405234801561001057600080fd5b50600436106100a95760003560e01c8063313ce56711610071578063313ce5671461016657806370a08231146101845780638da5cb5b146101b457806395d89b41146101d2578063a9059cbb146101f0578063dd62ed3e14610220576100a9565b806306fdde03146100ae578063095ea7b3146100cc57806318160ddd146100fc5780631d43cc981461011a57806323b872dd14610136575b600080fd5b6100b6610250565b6040516100c39190610979565b60405180910390f35b6100e660048036038101906100e19190610a34565b610289565b6040516100f39190610a8f565b60405180910390f35b6101046103bc565b6040516101119190610ab9565b60405180910390f35b610134600480360381019061012f9190610ad4565b6103c6565b005b610150600480360381019061014b9190610b01565b610459565b60405161015d9190610a8f565b60405180910390f35b61016e6105e3565b60405161017b9190610b70565b60405180910390f35b61019e60048036038101906101999190610b8b565b6105e8565b6040516101ab9190610ab9565b60405180910390f35b6101bc610631565b6040516101c99190610bc7565b60405180910390f35b6101da610655565b6040516101e79190610979565b60405180910390f35b61020a60048036038101906102059190610a34565b61068e565b6040516102179190610a8f565b60405180910390f35b61023a60048036038101906102359190610be2565b610859565b6040516102479190610ab9565b60405180910390f35b6040518060400160405280600781526020017f4c5754436f696e0000000000000000000000000000000000000000000000000081525081565b600081600260008060009054906101000a900473ffffffffffffffffffffffffffffffffffffffff1673ffffffffffffffffffffffffffffffffffffffff1673ffffffffffffffffffffffffffffffffffffffff16815260200190815260200160002060008573ffffffffffffffffffffffffffffffffffffffff1673ffffffffffffffffffffffffffffffffffffffff168152602001908152602001600020819055508273ffffffffffffffffffffffffffffffffffffffff1660008054906101000a900473ffffffffffffffffffffffffffffffffffffffff1673ffffffffffffffffffffffffffffffffffffffff167f8c5be1e5ebec7d5bd14f71427d1e84f3dd0314c0f7b2291e5b200ac8c7c3b925846040516103aa9190610ab9565b60405180910390a36001905092915050565b6000600354905090565b80600360008282546103d89190610c51565b9250508190555080600160008060009054906101000a900473ffffffffffffffffffffffffffffffffffffffff1673ffffffffffffffffffffffffffffffffffffffff1673ffffffffffffffffffffffffffffffffffffffff168152602001908152602001600020600082825461044f9190610c51565b9250508190555050565b6000600160008573ffffffffffffffffffffffffffffffffffffffff1673ffffffffffffffffffffffffffffffffffffffff168152602001908152602001600020548211156104a757600080fd5b81600160008673ffffffffffffffffffffffffffffffffffffffff1673ffffffffffffffffffffffffffffffffffffffff16815260200190815260200160002060008282546104f69190610ca7565b9250508190555081600160008573ffffffffffffffffffffffffffffffffffffffff1673ffffffffffffffffffffffffffffffffffffffff168152602001908152602001600020600082825461054c9190610c51565b925050819055508273ffffffffffffffffffffffffffffffffffffffff1660008054906101000a900473ffffffffffffffffffffffffffffffffffffffff1673ffffffffffffffffffffffffffffffffffffffff167fddf252ad1be2c89b69c2b068fc378daa952ba7f163c4a11628f55a4df523b3ef846040516105d09190610ab9565b60405180910390a3600190509392505050565b600281565b6000600160008373ffffffffffffffffffffffffffffffffffffffff1673ffffffffffffffffffffffffffffffffffffffff168152602001908152602001600020549050919050565b60008054906101000a900473ffffffffffffffffffffffffffffffffffffffff1681565b6040518060400160405280600381526020017f4c5754000000000000000000000000000000000000000000000000000000000081525081565b6000600160008060009054906101000a900473ffffffffffffffffffffffffffffffffffffffff1673ffffffffffffffffffffffffffffffffffffffff1673ffffffffffffffffffffffffffffffffffffffff168152602001908152602001600020548211156106fd57600080fd5b81600160008060009054906101000a900473ffffffffffffffffffffffffffffffffffffffff1673ffffffffffffffffffffffffffffffffffffffff1673ffffffffffffffffffffffffffffffffffffffff168152602001908152602001600020600082825461076d9190610ca7565b9250508190555081600160008573ffffffffffffffffffffffffffffffffffffffff1673ffffffffffffffffffffffffffffffffffffffff16815260200190815260200160002060008282546107c39190610c51565b925050819055508273ffffffffffffffffffffffffffffffffffffffff1660008054906101000a900473ffffffffffffffffffffffffffffffffffffffff1673ffffffffffffffffffffffffffffffffffffffff167fddf252ad1be2c89b69c2b068fc378daa952ba7f163c4a11628f55a4df523b3ef846040516108479190610ab9565b60405180910390a36001905092915050565b6000600260008473ffffffffffffffffffffffffffffffffffffffff1673ffffffffffffffffffffffffffffffffffffffff16815260200190815260200160002060008373ffffffffffffffffffffffffffffffffffffffff1673ffffffffffffffffffffffffffffffffffffffff16815260200190815260200160002054905092915050565b600081519050919050565b600082825260208201905092915050565b60005b8381101561091a5780820151818401526020810190506108ff565b83811115610929576000848401525b50505050565b6000601f19601f8301169050919050565b600061094b826108e0565b61095581856108eb565b93506109658185602086016108fc565b61096e8161092f565b840191505092915050565b600060208201905081810360008301526109938184610940565b905092915050565b600080fd5b600073ffffffffffffffffffffffffffffffffffffffff82169050919050565b60006109cb826109a0565b9050919050565b6109db816109c0565b81146109e657600080fd5b50565b6000813590506109f8816109d2565b92915050565b6000819050919050565b610a11816109fe565b8114610a1c57600080fd5b50565b600081359050610a2e81610a08565b92915050565b60008060408385031215610a4b57610a4a61099b565b5b6000610a59858286016109e9565b9250506020610a6a85828601610a1f565b9150509250929050565b60008115159050919050565b610a8981610a74565b82525050565b6000602082019050610aa46000830184610a80565b92915050565b610ab3816109fe565b82525050565b6000602082019050610ace6000830184610aaa565b92915050565b600060208284031215610aea57610ae961099b565b5b6000610af884828501610a1f565b91505092915050565b600080600060608486031215610b1a57610b1961099b565b5b6000610b28868287016109e9565b9350506020610b39868287016109e9565b9250506040610b4a86828701610a1f565b9150509250925092565b600060ff82169050919050565b610b6a81610b54565b82525050565b6000602082019050610b856000830184610b61565b92915050565b600060208284031215610ba157610ba061099b565b5b6000610baf848285016109e9565b91505092915050565b610bc1816109c0565b82525050565b6000602082019050610bdc6000830184610bb8565b92915050565b60008060408385031215610bf957610bf861099b565b5b6000610c07858286016109e9565b9250506020610c18858286016109e9565b9150509250929050565b7f4e487b7100000000000000000000000000000000000000000000000000000000600052601160045260246000fd5b6000610c5c826109fe565b9150610c67836109fe565b9250827fffffffffffffffffffffffffffffffffffffffffffffffffffffffffffffffff03821115610c9c57610c9b610c22565b5b828201905092915050565b6000610cb2826109fe565b9150610cbd836109fe565b925082821015610cd057610ccf610c22565b5b82820390509291505056fea26469706673582212205b93edcf5b0648b84c294fcb3574721869354568be73587457c31753bf14822164736f6c634300080a0033",
  "immutableReferences": {},
  "source": "//SPDX-License-Identifier: MIT\r\npragma solidity 0.8;\r\nimport \"./LWT.sol\";\r\n\r\ncontract LWTcoin {\r\n     struct user {                     \r\n        uint tokens;\r\n        bool registered;\r\n    }\r\n    LWT public tokenaddress;\r\n    address payable owner;\r\n    mapping(address =>user) users;\r\n    uint256 public endtime;\r\n    uint public lotterytime;\r\n    event purchasedTokens(uint, address);\r\n    uint public gain;\r\n    uint totalfundsraised=0;\r\n    address _contract;\r\n    //uint public time=block.timestamp;\r\n    constructor() payable{\r\n        tokenaddress = new LWT(msg.sender);\r\n        owner = payable(msg.sender);\r\n        lotterytime=1000;\r\n        gain=20;\r\n         _contract = address(this);\r\n    }\r\n    \r\n    modifier onlyowner(){\r\n        require(msg.sender == owner);\r\n        _;\r\n     }\r\n     modifier islotterystarted(){\r\n        require(block.timestamp>starttime,\"Lottery not yet started\");\r\n        _;\r\n     }\r\n     modifier isregistered(){\r\n         require(users[msg.sender].registered==true,\"please register before buying tickets\");\r\n         _;\r\n     }\r\n     \r\n     modifier islotterytimeended()\r\n     { \r\n         require(block.timestamp>endtime,\"Lottery time not ended\");\r\n         _;\r\n     }\r\n     modifier islotterynotended(){  \r\n         require(block.timestamp<endtime,\"Lottery time ended\");\r\n         _;\r\n     }\r\n     \r\n      function startLottery() public onlyowner{\r\n       totalfundsraised=0;\r\n       starttime=block.timestamp;\r\n       endtime=starttime+lotterytime;\r\n    }\r\n    \r\n     function register(address use,uint bonustokens) public onlyowner islotterystarted {\r\n       \r\n        users[use].tokens = bonustokens;\r\n        users[use].registered=true;\r\n        tokenaddress.transferFrom(msg.sender,use,bonustokens);\r\n        \r\n    }\r\n    uint ticketPrice=500;\r\n    uint randNonce = 0;\r\n    uint starttime;\r\n    mapping(address=>uint[]) peopleTickets;\r\n    mapping (uint=>address) winner;\r\n    event purchasedTicket(uint, address); \r\n    event winningTicket(uint);\r\n    uint[] purchasedTickets;\r\n    address winnerAddress;\r\n    address[] winners;\r\n    \r\n    function buyTicket(uint _tickets) public isregistered islotterynotended islotterystarted payable{\r\n        uint totalPrice = _tickets*ticketPrice;\r\n        totalfundsraised=totalfundsraised+totalPrice;\r\n        require(totalPrice<=users[msg.sender].tokens, \"You need more tokens.\");\r\n        tokenaddress.transferFrom(msg.sender, owner, totalPrice);\r\n        for(uint i=0; i<_tickets; i++) {\r\n            uint random = uint(keccak256(abi.encodePacked(block.timestamp, msg.sender, randNonce)))%10000;\r\n            randNonce++;\r\n            peopleTickets[msg.sender].push(random);\r\n            purchasedTickets.push(random);\r\n            winner[random] = msg.sender;\r\n            emit purchasedTicket(random, msg.sender);\r\n        }\r\n    }\r\n   \r\n    uint winnerscount = 1;\r\n    function UpdateNumberofWinners(uint num) public onlyowner islotterynotended {\r\n        winnerscount = num;\r\n    }\r\n    \r\n    function generateWinningTicket() public onlyowner islotterytimeended payable{\r\n        uint ticketsQty = purchasedTickets.length;\r\n        require(ticketsQty>0, \"No ticket has been purchased.\");\r\n        for (uint64 i = 0; i < winnerscount; i++) {\r\n            uint randomIndex = uint(uint(keccak256(abi.encodePacked(block.timestamp)))%ticketsQty);\r\n            uint winning = purchasedTickets[randomIndex];\r\n            emit winningTicket(winning);\r\n            winnerAddress = winner[winning];\r\n            winners.push(winnerAddress);\r\n             }\r\n    }\r\n    function settlePayment() public onlyowner islotterytimeended payable{\r\n        uint winnergain=100-gain;\r\n        uint winningamount=(winnergain*totalfundsraised/100)/winnerscount;\r\n       // uint ownerprofit=totalfundsraised-winningamount;\r\n       for (uint64 i = 0; i < winnerscount; i++) {\r\n        tokenaddress.transfer(winners[i],winningamount);\r\n       }\r\n    }\r\n  function seeWinners() public islotterytimeended view returns(address[] memory){\r\n      return winners;\r\n      \r\n  }\r\n}",
  "sourcePath": "/Users/likhithadodda/Downloads/smartlottery/smartlottery/contracts/smartlottery.sol",
  "compiler": {
    "name": "solc",
    "version": "0.8.10+commit.fc410830.Emscripten.clang"
  },
  "schemaVersion": "3.4.3",
  "updatedAt": "2021-12-03T23:37:31.738Z",
  "devdoc": {
    "kind": "dev",
    "methods": {},
    "version": 1
  },
  "userdoc": {
    "kind": "user",
    "methods": {},
    "version": 1
  }
}