{
  "contractName": "smartlottery",
  "abi": [
    {
      "inputs": [],
      "stateMutability": "payable",
      "type": "constructor"
    },
    {
      "anonymous": false,
      "inputs": [
        {
          "indexed": false,
          "internalType": "uint256",
          "name": "",
          "type": "uint256"
        },
        {
          "indexed": false,
          "internalType": "address",
          "name": "",
          "type": "address"
        }
      ],
      "name": "purchasedTicket",
      "type": "event"
    },
    {
      "anonymous": false,
      "inputs": [
        {
          "indexed": false,
          "internalType": "uint256",
          "name": "",
          "type": "uint256"
        },
        {
          "indexed": false,
          "internalType": "address",
          "name": "",
          "type": "address"
        }
      ],
      "name": "purchasedTokens",
      "type": "event"
    },
    {
      "anonymous": false,
      "inputs": [
        {
          "indexed": false,
          "internalType": "uint256",
          "name": "",
          "type": "uint256"
        }
      ],
      "name": "winningTicket",
      "type": "event"
    },
    {
      "inputs": [],
      "name": "endtime",
      "outputs": [
        {
          "internalType": "uint256",
          "name": "",
          "type": "uint256"
        }
      ],
      "stateMutability": "view",
      "type": "function"
    },
    {
      "inputs": [],
      "name": "gain",
      "outputs": [
        {
          "internalType": "uint256",
          "name": "",
          "type": "uint256"
        }
      ],
      "stateMutability": "view",
      "type": "function"
    },
    {
      "inputs": [],
      "name": "lotterytime",
      "outputs": [
        {
          "internalType": "uint256",
          "name": "",
          "type": "uint256"
        }
      ],
      "stateMutability": "view",
      "type": "function"
    },
    {
      "inputs": [],
      "name": "t",
      "outputs": [
        {
          "internalType": "uint256",
          "name": "",
          "type": "uint256"
        }
      ],
      "stateMutability": "view",
      "type": "function"
    },
    {
      "inputs": [],
      "name": "tokenadd",
      "outputs": [
        {
          "internalType": "address",
          "name": "",
          "type": "address"
        }
      ],
      "stateMutability": "view",
      "type": "function"
    },
    {
      "inputs": [],
      "name": "tokenaddress",
      "outputs": [
        {
          "internalType": "contract LWT",
          "name": "",
          "type": "address"
        }
      ],
      "stateMutability": "view",
      "type": "function"
    },
    {
      "inputs": [
        {
          "internalType": "uint256",
          "name": "time",
          "type": "uint256"
        },
        {
          "internalType": "uint256",
          "name": "_gain",
          "type": "uint256"
        }
      ],
      "name": "startLottery",
      "outputs": [],
      "stateMutability": "nonpayable",
      "type": "function"
    },
    {
      "inputs": [
        {
          "internalType": "address",
          "name": "use",
          "type": "address"
        },
        {
          "internalType": "uint256",
          "name": "bonustokens",
          "type": "uint256"
        }
      ],
      "name": "register",
      "outputs": [],
      "stateMutability": "nonpayable",
      "type": "function"
    },
    {
      "inputs": [
        {
          "internalType": "uint256",
          "name": "_tickets",
          "type": "uint256"
        }
      ],
      "name": "buyTicket",
      "outputs": [],
      "stateMutability": "payable",
      "type": "function"
    },
    {
      "inputs": [
        {
          "internalType": "uint256",
          "name": "num",
          "type": "uint256"
        }
      ],
      "name": "UpdateNumberofWinners",
      "outputs": [],
      "stateMutability": "nonpayable",
      "type": "function"
    },
    {
      "inputs": [],
      "name": "generateWinningTicket",
      "outputs": [],
      "stateMutability": "payable",
      "type": "function"
    },
    {
      "inputs": [],
      "name": "settlePayment",
      "outputs": [],
      "stateMutability": "payable",
      "type": "function"
    },
    {
      "inputs": [],
      "name": "seeTokenaddress",
      "outputs": [
        {
          "internalType": "address",
          "name": "",
          "type": "address"
        }
      ],
      "stateMutability": "view",
      "type": "function"
    },
    {
      "inputs": [],
      "name": "seeWinners",
      "outputs": [
        {
          "internalType": "address[]",
          "name": "",
          "type": "address[]"
        }
      ],
      "stateMutability": "view",
      "type": "function"
    }
  ],
  "bytecode": "0x6080604052600a600155600060055560006008556101f4600b556000600c55600160135533604051620000329062000184565b6200003e9190620001d7565b604051809103906000f0801580156200005b573d6000803e3d6000fd5b506000806101000a81548173ffffffffffffffffffffffffffffffffffffffff021916908373ffffffffffffffffffffffffffffffffffffffff16021790555060008054906101000a900473ffffffffffffffffffffffffffffffffffffffff16600a60006101000a81548173ffffffffffffffffffffffffffffffffffffffff021916908373ffffffffffffffffffffffffffffffffffffffff16021790555033600260006101000a81548173ffffffffffffffffffffffffffffffffffffffff021916908373ffffffffffffffffffffffffffffffffffffffff16021790555030600960006101000a81548173ffffffffffffffffffffffffffffffffffffffff021916908373ffffffffffffffffffffffffffffffffffffffff160217905550620001f4565b610e9a8062001d3d83390190565b600073ffffffffffffffffffffffffffffffffffffffff82169050919050565b6000620001bf8262000192565b9050919050565b620001d181620001b2565b82525050565b6000602082019050620001ee6000830184620001c6565b92915050565b611b3980620002046000396000f3fe6080604052600436106100dd5760003560e01c80637bf905aa1161007f57806392d0d1531161005957806392d0d1531461023b5780639926223c14610266578063ab6c21ae14610291578063b892e838146102ba576100dd565b80637bf905aa146101dd5780637f520ad8146101e7578063879c7cde14610212576100dd565b80633feff76d116100bb5780633feff76d14610142578063653d0ffd1461016d57806367dd74ca146101985780636d705ebb146101b4576100dd565b80630f50f5be146100e25780632ca126f8146100ec578063316bbdb014610117575b600080fd5b6100ea6102e5565b005b3480156100f857600080fd5b5061010161058c565b60405161010e9190611095565b60405180910390f35b34801561012357600080fd5b5061012c610592565b60405161013991906110f1565b60405180910390f35b34801561014e57600080fd5b506101576105bc565b604051610164919061116b565b60405180910390f35b34801561017957600080fd5b506101826105e0565b60405161018f91906110f1565b60405180910390f35b6101b260048036038101906101ad91906111b7565b610606565b005b3480156101c057600080fd5b506101db60048036038101906101d69190611210565b610a77565b005b6101e5610c5c565b005b3480156101f357600080fd5b506101fc610e56565b6040516102099190611095565b60405180910390f35b34801561021e57600080fd5b50610239600480360381019061023491906111b7565b610e5c565b005b34801561024757600080fd5b50610250610f05565b60405161025d9190611095565b60405180910390f35b34801561027257600080fd5b5061027b610f0b565b6040516102889190611095565b60405180910390f35b34801561029d57600080fd5b506102b860048036038101906102b39190611250565b610f11565b005b3480156102c657600080fd5b506102cf610faa565b6040516102dc919061134e565b60405180910390f35b600260009054906101000a900473ffffffffffffffffffffffffffffffffffffffff1673ffffffffffffffffffffffffffffffffffffffff163373ffffffffffffffffffffffffffffffffffffffff161461033f57600080fd5b6004544211610383576040517f08c379a000000000000000000000000000000000000000000000000000000000815260040161037a906113cd565b60405180910390fd5b60006010805490509050600081116103d0576040517f08c379a00000000000000000000000000000000000000000000000000000000081526004016103c790611439565b60405180910390fd5b60005b6013548167ffffffffffffffff16101561058857600082426040516020016103fb919061147a565b6040516020818303038152906040528051906020012060001c61041e91906114c4565b9050600060108281548110610436576104356114f5565b5b906000526020600020015490507fdeb6263f5594b114cabe59bc9533219412cc13883ffdc5fd1a746e19d3725b30816040516104729190611095565b60405180910390a1600f600082815260200190815260200160002060009054906101000a900473ffffffffffffffffffffffffffffffffffffffff16601160006101000a81548173ffffffffffffffffffffffffffffffffffffffff021916908373ffffffffffffffffffffffffffffffffffffffff1602179055506012601160009054906101000a900473ffffffffffffffffffffffffffffffffffffffff169080600181540180825580915050600190039060005260206000200160009091909190916101000a81548173ffffffffffffffffffffffffffffffffffffffff021916908373ffffffffffffffffffffffffffffffffffffffff1602179055505050808061058090611567565b9150506103d3565b5050565b60045481565b6000600a60009054906101000a900473ffffffffffffffffffffffffffffffffffffffff16905090565b60008054906101000a900473ffffffffffffffffffffffffffffffffffffffff1681565b600a60009054906101000a900473ffffffffffffffffffffffffffffffffffffffff1681565b60011515600360003373ffffffffffffffffffffffffffffffffffffffff1673ffffffffffffffffffffffffffffffffffffffff16815260200190815260200160002060010160009054906101000a900460ff1615151461069c576040517f08c379a00000000000000000000000000000000000000000000000000000000081526004016106939061160a565b60405180910390fd5b60045442106106e0576040517f08c379a00000000000000000000000000000000000000000000000000000000081526004016106d790611676565b60405180910390fd5b600d544211610724576040517f08c379a000000000000000000000000000000000000000000000000000000000815260040161071b906116e2565b60405180910390fd5b6000600b54826107349190611702565b905080600854610744919061175c565b600881905550600360003373ffffffffffffffffffffffffffffffffffffffff1673ffffffffffffffffffffffffffffffffffffffff168152602001908152602001600020600001548111156107cf576040517f08c379a00000000000000000000000000000000000000000000000000000000081526004016107c6906117fe565b60405180910390fd5b60008054906101000a900473ffffffffffffffffffffffffffffffffffffffff1673ffffffffffffffffffffffffffffffffffffffff166323b872dd33600260009054906101000a900473ffffffffffffffffffffffffffffffffffffffff16846040518463ffffffff1660e01b815260040161084e9392919061183f565b6020604051808303816000875af115801561086d573d6000803e3d6000fd5b505050506040513d601f19601f8201168201806040525081019061089191906118ae565b5060005b82811015610a245760006127104233600c546040516020016108b993929190611923565b6040516020818303038152906040528051906020012060001c6108dc91906114c4565b9050600c60008154809291906108f190611960565b9190505550600e60003373ffffffffffffffffffffffffffffffffffffffff1673ffffffffffffffffffffffffffffffffffffffff168152602001908152602001600020819080600181540180825580915050600190039060005260206000200160009091909190915055601081908060018154018082558091505060019003906000526020600020016000909190919091505533600f600083815260200190815260200160002060006101000a81548173ffffffffffffffffffffffffffffffffffffffff021916908373ffffffffffffffffffffffffffffffffffffffff1602179055507fabb2c65274f37002782994eceb72ad13ae40ec3d441602eadb9fc8985f36f7dd8133604051610a089291906119a9565b60405180910390a1508080610a1c90611960565b915050610895565b506000601080549050905060008111610a72576040517f08c379a0000000000000000000000000000000000000000000000000000000008152600401610a6990611439565b60405180910390fd5b505050565b600260009054906101000a900473ffffffffffffffffffffffffffffffffffffffff1673ffffffffffffffffffffffffffffffffffffffff163373ffffffffffffffffffffffffffffffffffffffff1614610ad157600080fd5b600d544211610b15576040517f08c379a0000000000000000000000000000000000000000000000000000000008152600401610b0c906116e2565b60405180910390fd5b80600360008473ffffffffffffffffffffffffffffffffffffffff1673ffffffffffffffffffffffffffffffffffffffff168152602001908152602001600020600001819055506001600360008473ffffffffffffffffffffffffffffffffffffffff1673ffffffffffffffffffffffffffffffffffffffff16815260200190815260200160002060010160006101000a81548160ff02191690831515021790555060008054906101000a900473ffffffffffffffffffffffffffffffffffffffff1673ffffffffffffffffffffffffffffffffffffffff166323b872dd3384846040518463ffffffff1660e01b8152600401610c14939291906119d2565b6020604051808303816000875af1158015610c33573d6000803e3d6000fd5b505050506040513d601f19601f82011682018060405250810190610c5791906118ae565b505050565b600260009054906101000a900473ffffffffffffffffffffffffffffffffffffffff1673ffffffffffffffffffffffffffffffffffffffff163373ffffffffffffffffffffffffffffffffffffffff1614610cb657600080fd5b6004544211610cfa576040517f08c379a0000000000000000000000000000000000000000000000000000000008152600401610cf1906113cd565b60405180910390fd5b60006007546064610d0b9190611a09565b905060006005819055506000601354606460085484610d2a9190611702565b610d349190611a3d565b610d3e9190611a3d565b905060005b6013548167ffffffffffffffff161015610e515760008054906101000a900473ffffffffffffffffffffffffffffffffffffffff1673ffffffffffffffffffffffffffffffffffffffff1663a9059cbb60128367ffffffffffffffff1681548110610db157610db06114f5565b5b9060005260206000200160009054906101000a900473ffffffffffffffffffffffffffffffffffffffff16846040518363ffffffff1660e01b8152600401610dfa929190611a6e565b6020604051808303816000875af1158015610e19573d6000803e3d6000fd5b505050506040513d601f19601f82011682018060405250810190610e3d91906118ae565b508080610e4990611567565b915050610d43565b505050565b60065481565b600260009054906101000a900473ffffffffffffffffffffffffffffffffffffffff1673ffffffffffffffffffffffffffffffffffffffff163373ffffffffffffffffffffffffffffffffffffffff1614610eb657600080fd5b600060055414610efb576040517f08c379a0000000000000000000000000000000000000000000000000000000008152600401610ef290611ae3565b60405180910390fd5b8060138190555050565b60015481565b60075481565b600260009054906101000a900473ffffffffffffffffffffffffffffffffffffffff1673ffffffffffffffffffffffffffffffffffffffff163373ffffffffffffffffffffffffffffffffffffffff1614610f6b57600080fd5b60016005819055506000600881905550816006819055508060078190555042600d81905550600654600d54610fa0919061175c565b6004819055505050565b60606004544211610ff0576040517f08c379a0000000000000000000000000000000000000000000000000000000008152600401610fe7906113cd565b60405180910390fd5b601280548060200260200160405190810160405280929190818152602001828054801561107257602002820191906000526020600020905b8160009054906101000a900473ffffffffffffffffffffffffffffffffffffffff1673ffffffffffffffffffffffffffffffffffffffff1681526020019060010190808311611028575b5050505050905090565b6000819050919050565b61108f8161107c565b82525050565b60006020820190506110aa6000830184611086565b92915050565b600073ffffffffffffffffffffffffffffffffffffffff82169050919050565b60006110db826110b0565b9050919050565b6110eb816110d0565b82525050565b600060208201905061110660008301846110e2565b92915050565b6000819050919050565b600061113161112c611127846110b0565b61110c565b6110b0565b9050919050565b600061114382611116565b9050919050565b600061115582611138565b9050919050565b6111658161114a565b82525050565b6000602082019050611180600083018461115c565b92915050565b600080fd5b6111948161107c565b811461119f57600080fd5b50565b6000813590506111b18161118b565b92915050565b6000602082840312156111cd576111cc611186565b5b60006111db848285016111a2565b91505092915050565b6111ed816110d0565b81146111f857600080fd5b50565b60008135905061120a816111e4565b92915050565b6000806040838503121561122757611226611186565b5b6000611235858286016111fb565b9250506020611246858286016111a2565b9150509250929050565b6000806040838503121561126757611266611186565b5b6000611275858286016111a2565b9250506020611286858286016111a2565b9150509250929050565b600081519050919050565b600082825260208201905092915050565b6000819050602082019050919050565b6112c5816110d0565b82525050565b60006112d783836112bc565b60208301905092915050565b6000602082019050919050565b60006112fb82611290565b611305818561129b565b9350611310836112ac565b8060005b8381101561134157815161132888826112cb565b9750611333836112e3565b925050600181019050611314565b5085935050505092915050565b6000602082019050818103600083015261136881846112f0565b905092915050565b600082825260208201905092915050565b7f4c6f74746572792074696d65206e6f7420656e64656400000000000000000000600082015250565b60006113b7601683611370565b91506113c282611381565b602082019050919050565b600060208201905081810360008301526113e6816113aa565b9050919050565b7f4e6f207469636b657420686173206265656e207075726368617365642e000000600082015250565b6000611423601d83611370565b915061142e826113ed565b602082019050919050565b6000602082019050818103600083015261145281611416565b9050919050565b6000819050919050565b61147461146f8261107c565b611459565b82525050565b60006114868284611463565b60208201915081905092915050565b7f4e487b7100000000000000000000000000000000000000000000000000000000600052601260045260246000fd5b60006114cf8261107c565b91506114da8361107c565b9250826114ea576114e9611495565b5b828206905092915050565b7f4e487b7100000000000000000000000000000000000000000000000000000000600052603260045260246000fd5b7f4e487b7100000000000000000000000000000000000000000000000000000000600052601160045260246000fd5b600067ffffffffffffffff82169050919050565b600061157282611553565b915067ffffffffffffffff82141561158d5761158c611524565b5b600182019050919050565b7f706c65617365207265676973746572206265666f726520627579696e6720746960008201527f636b657473000000000000000000000000000000000000000000000000000000602082015250565b60006115f4602583611370565b91506115ff82611598565b604082019050919050565b60006020820190508181036000830152611623816115e7565b9050919050565b7f4c6f74746572792074696d6520656e6465640000000000000000000000000000600082015250565b6000611660601283611370565b915061166b8261162a565b602082019050919050565b6000602082019050818103600083015261168f81611653565b9050919050565b7f4c6f7474657279206e6f74207965742073746172746564000000000000000000600082015250565b60006116cc601783611370565b91506116d782611696565b602082019050919050565b600060208201905081810360008301526116fb816116bf565b9050919050565b600061170d8261107c565b91506117188361107c565b9250817fffffffffffffffffffffffffffffffffffffffffffffffffffffffffffffffff048311821515161561175157611750611524565b5b828202905092915050565b60006117678261107c565b91506117728361107c565b9250827fffffffffffffffffffffffffffffffffffffffffffffffffffffffffffffffff038211156117a7576117a6611524565b5b828201905092915050565b7f596f75206e656564206d6f726520746f6b656e732e0000000000000000000000600082015250565b60006117e8601583611370565b91506117f3826117b2565b602082019050919050565b60006020820190508181036000830152611817816117db565b9050919050565b600061182982611138565b9050919050565b6118398161181e565b82525050565b600060608201905061185460008301866110e2565b6118616020830185611830565b61186e6040830184611086565b949350505050565b60008115159050919050565b61188b81611876565b811461189657600080fd5b50565b6000815190506118a881611882565b92915050565b6000602082840312156118c4576118c3611186565b5b60006118d284828501611899565b91505092915050565b60008160601b9050919050565b60006118f3826118db565b9050919050565b6000611905826118e8565b9050919050565b61191d611918826110d0565b6118fa565b82525050565b600061192f8286611463565b60208201915061193f828561190c565b60148201915061194f8284611463565b602082019150819050949350505050565b600061196b8261107c565b91507fffffffffffffffffffffffffffffffffffffffffffffffffffffffffffffffff82141561199e5761199d611524565b5b600182019050919050565b60006040820190506119be6000830185611086565b6119cb60208301846110e2565b9392505050565b60006060820190506119e760008301866110e2565b6119f460208301856110e2565b611a016040830184611086565b949350505050565b6000611a148261107c565b9150611a1f8361107c565b925082821015611a3257611a31611524565b5b828203905092915050565b6000611a488261107c565b9150611a538361107c565b925082611a6357611a62611495565b5b828204905092915050565b6000604082019050611a8360008301856110e2565b611a906020830184611086565b9392505050565b7f4c6f747465727920737461727465640000000000000000000000000000000000600082015250565b6000611acd600f83611370565b9150611ad882611a97565b602082019050919050565b60006020820190508181036000830152611afc81611ac0565b905091905056fea2646970667358221220fc0b649f824790bab0a78dc3457608117d2bf8769b200c2113ddcc830451d04764736f6c634300080a0033608060405234801561001057600080fd5b50604051610e9a380380610e9a8339818101604052810190610032919061014d565b6302faf080600381905550806000806101000a81548173ffffffffffffffffffffffffffffffffffffffff021916908373ffffffffffffffffffffffffffffffffffffffff160217905550600354600160008060009054906101000a900473ffffffffffffffffffffffffffffffffffffffff1673ffffffffffffffffffffffffffffffffffffffff1673ffffffffffffffffffffffffffffffffffffffff168152602001908152602001600020819055505061017a565b600080fd5b600073ffffffffffffffffffffffffffffffffffffffff82169050919050565b600061011a826100ef565b9050919050565b61012a8161010f565b811461013557600080fd5b50565b60008151905061014781610121565b92915050565b600060208284031215610163576101626100ea565b5b600061017184828501610138565b91505092915050565b610d11806101896000396000f3fe608060405234801561001057600080fd5b50600436106100a95760003560e01c8063313ce56711610071578063313ce5671461016657806370a08231146101845780638da5cb5b146101b457806395d89b41146101d2578063a9059cbb146101f0578063dd62ed3e14610220576100a9565b806306fdde03146100ae578063095ea7b3146100cc57806318160ddd146100fc5780631d43cc981461011a57806323b872dd14610136575b600080fd5b6100b6610250565b6040516100c39190610979565b60405180910390f35b6100e660048036038101906100e19190610a34565b610289565b6040516100f39190610a8f565b60405180910390f35b6101046103bc565b6040516101119190610ab9565b60405180910390f35b610134600480360381019061012f9190610ad4565b6103c6565b005b610150600480360381019061014b9190610b01565b610459565b60405161015d9190610a8f565b60405180910390f35b61016e6105e3565b60405161017b9190610b70565b60405180910390f35b61019e60048036038101906101999190610b8b565b6105e8565b6040516101ab9190610ab9565b60405180910390f35b6101bc610631565b6040516101c99190610bc7565b60405180910390f35b6101da610655565b6040516101e79190610979565b60405180910390f35b61020a60048036038101906102059190610a34565b61068e565b6040516102179190610a8f565b60405180910390f35b61023a60048036038101906102359190610be2565b610859565b6040516102479190610ab9565b60405180910390f35b6040518060400160405280600781526020017f4c5754436f696e0000000000000000000000000000000000000000000000000081525081565b600081600260008060009054906101000a900473ffffffffffffffffffffffffffffffffffffffff1673ffffffffffffffffffffffffffffffffffffffff1673ffffffffffffffffffffffffffffffffffffffff16815260200190815260200160002060008573ffffffffffffffffffffffffffffffffffffffff1673ffffffffffffffffffffffffffffffffffffffff168152602001908152602001600020819055508273ffffffffffffffffffffffffffffffffffffffff1660008054906101000a900473ffffffffffffffffffffffffffffffffffffffff1673ffffffffffffffffffffffffffffffffffffffff167f8c5be1e5ebec7d5bd14f71427d1e84f3dd0314c0f7b2291e5b200ac8c7c3b925846040516103aa9190610ab9565b60405180910390a36001905092915050565b6000600354905090565b80600360008282546103d89190610c51565b9250508190555080600160008060009054906101000a900473ffffffffffffffffffffffffffffffffffffffff1673ffffffffffffffffffffffffffffffffffffffff1673ffffffffffffffffffffffffffffffffffffffff168152602001908152602001600020600082825461044f9190610c51565b9250508190555050565b6000600160008573ffffffffffffffffffffffffffffffffffffffff1673ffffffffffffffffffffffffffffffffffffffff168152602001908152602001600020548211156104a757600080fd5b81600160008673ffffffffffffffffffffffffffffffffffffffff1673ffffffffffffffffffffffffffffffffffffffff16815260200190815260200160002060008282546104f69190610ca7565b9250508190555081600160008573ffffffffffffffffffffffffffffffffffffffff1673ffffffffffffffffffffffffffffffffffffffff168152602001908152602001600020600082825461054c9190610c51565b925050819055508273ffffffffffffffffffffffffffffffffffffffff1660008054906101000a900473ffffffffffffffffffffffffffffffffffffffff1673ffffffffffffffffffffffffffffffffffffffff167fddf252ad1be2c89b69c2b068fc378daa952ba7f163c4a11628f55a4df523b3ef846040516105d09190610ab9565b60405180910390a3600190509392505050565b600281565b6000600160008373ffffffffffffffffffffffffffffffffffffffff1673ffffffffffffffffffffffffffffffffffffffff168152602001908152602001600020549050919050565b60008054906101000a900473ffffffffffffffffffffffffffffffffffffffff1681565b6040518060400160405280600381526020017f4c5754000000000000000000000000000000000000000000000000000000000081525081565b6000600160008060009054906101000a900473ffffffffffffffffffffffffffffffffffffffff1673ffffffffffffffffffffffffffffffffffffffff1673ffffffffffffffffffffffffffffffffffffffff168152602001908152602001600020548211156106fd57600080fd5b81600160008060009054906101000a900473ffffffffffffffffffffffffffffffffffffffff1673ffffffffffffffffffffffffffffffffffffffff1673ffffffffffffffffffffffffffffffffffffffff168152602001908152602001600020600082825461076d9190610ca7565b9250508190555081600160008573ffffffffffffffffffffffffffffffffffffffff1673ffffffffffffffffffffffffffffffffffffffff16815260200190815260200160002060008282546107c39190610c51565b925050819055508273ffffffffffffffffffffffffffffffffffffffff1660008054906101000a900473ffffffffffffffffffffffffffffffffffffffff1673ffffffffffffffffffffffffffffffffffffffff167fddf252ad1be2c89b69c2b068fc378daa952ba7f163c4a11628f55a4df523b3ef846040516108479190610ab9565b60405180910390a36001905092915050565b6000600260008473ffffffffffffffffffffffffffffffffffffffff1673ffffffffffffffffffffffffffffffffffffffff16815260200190815260200160002060008373ffffffffffffffffffffffffffffffffffffffff1673ffffffffffffffffffffffffffffffffffffffff16815260200190815260200160002054905092915050565b600081519050919050565b600082825260208201905092915050565b60005b8381101561091a5780820151818401526020810190506108ff565b83811115610929576000848401525b50505050565b6000601f19601f8301169050919050565b600061094b826108e0565b61095581856108eb565b93506109658185602086016108fc565b61096e8161092f565b840191505092915050565b600060208201905081810360008301526109938184610940565b905092915050565b600080fd5b600073ffffffffffffffffffffffffffffffffffffffff82169050919050565b60006109cb826109a0565b9050919050565b6109db816109c0565b81146109e657600080fd5b50565b6000813590506109f8816109d2565b92915050565b6000819050919050565b610a11816109fe565b8114610a1c57600080fd5b50565b600081359050610a2e81610a08565b92915050565b60008060408385031215610a4b57610a4a61099b565b5b6000610a59858286016109e9565b9250506020610a6a85828601610a1f565b9150509250929050565b60008115159050919050565b610a8981610a74565b82525050565b6000602082019050610aa46000830184610a80565b92915050565b610ab3816109fe565b82525050565b6000602082019050610ace6000830184610aaa565b92915050565b600060208284031215610aea57610ae961099b565b5b6000610af884828501610a1f565b91505092915050565b600080600060608486031215610b1a57610b1961099b565b5b6000610b28868287016109e9565b9350506020610b39868287016109e9565b9250506040610b4a86828701610a1f565b9150509250925092565b600060ff82169050919050565b610b6a81610b54565b82525050565b6000602082019050610b856000830184610b61565b92915050565b600060208284031215610ba157610ba061099b565b5b6000610baf848285016109e9565b91505092915050565b610bc1816109c0565b82525050565b6000602082019050610bdc6000830184610bb8565b92915050565b60008060408385031215610bf957610bf861099b565b5b6000610c07858286016109e9565b9250506020610c18858286016109e9565b9150509250929050565b7f4e487b7100000000000000000000000000000000000000000000000000000000600052601160045260246000fd5b6000610c5c826109fe565b9150610c67836109fe565b9250827fffffffffffffffffffffffffffffffffffffffffffffffffffffffffffffffff03821115610c9c57610c9b610c22565b5b828201905092915050565b6000610cb2826109fe565b9150610cbd836109fe565b925082821015610cd057610ccf610c22565b5b82820390509291505056fea26469706673582212205b93edcf5b0648b84c294fcb3574721869354568be73587457c31753bf14822164736f6c634300080a0033",
  "immutableReferences": {},
  "source": "//SPDX-License-Identifier: MIT\r\npragma solidity 0.8;\r\nimport \"./LWT.sol\";\r\n\r\ncontract smartlottery {\r\n     struct user {                     \r\n        uint tokens;\r\n        bool registered;\r\n    }\r\n    LWT public tokenaddress;\r\n    uint public t=10;\r\n\r\n    address payable owner;\r\n    mapping(address =>user) users;\r\n    uint256 public endtime;\r\n    uint flag=0;\r\n    uint public lotterytime;\r\n    event purchasedTokens(uint, address);\r\n    uint public gain;\r\n    uint totalfundsraised=0;\r\n    address _contract;\r\n    address public tokenadd;\r\n    //uint public time=block.timestamp;\r\n    constructor() payable{\r\n        tokenaddress = new LWT(msg.sender);\r\n        tokenadd = payable(address(tokenaddress));\r\n        owner = payable(msg.sender);\r\n        //add=tokenaddress;\r\n         _contract = address(this);\r\n    }\r\n    \r\n    modifier onlyowner(){\r\n        require(msg.sender == owner);\r\n        _;\r\n     }\r\n     modifier islotterystarted(){\r\n        require(block.timestamp>starttime,\"Lottery not yet started\");\r\n        _;\r\n     }\r\n     modifier isregistered(){\r\n         require(users[msg.sender].registered==true,\"please register before buying tickets\");\r\n         _;\r\n     }\r\n     \r\n     modifier islotterytimeended()\r\n     { \r\n         require(block.timestamp>endtime,\"Lottery time not ended\");\r\n         _;\r\n     }\r\n     modifier islotterynotended(){  \r\n         require(block.timestamp<endtime,\"Lottery time ended\");\r\n         _;\r\n     }\r\n      modifier islotterynotstarted(){  \r\n         require(flag==0,\"Lottery started\");\r\n         _;\r\n     }\r\n     \r\n      function startLottery(uint time,uint _gain) public onlyowner{\r\n        flag=1;\r\n       totalfundsraised=0;\r\n       lotterytime=time;\r\n        gain=_gain;\r\n       starttime=block.timestamp;\r\n       endtime=starttime+lotterytime;\r\n    }\r\n    \r\n     function register(address use,uint bonustokens) public onlyowner islotterystarted {\r\n       \r\n        users[use].tokens = bonustokens;\r\n        users[use].registered=true;\r\n        tokenaddress.transferFrom(msg.sender,use,bonustokens);\r\n        \r\n    }\r\n    uint ticketPrice=500;\r\n    uint randNonce = 0;\r\n    uint starttime;\r\n    mapping(address=>uint[]) peopleTickets;\r\n    mapping (uint=>address) winner;\r\n    event purchasedTicket(uint, address); \r\n    event winningTicket(uint);\r\n    uint[] purchasedTickets;\r\n    address winnerAddress;\r\n    address[] winners;\r\n    \r\n    function buyTicket(uint _tickets) public isregistered islotterynotended islotterystarted payable{\r\n        uint totalPrice = _tickets*ticketPrice;\r\n        totalfundsraised=totalfundsraised+totalPrice;\r\n        require(totalPrice<=users[msg.sender].tokens, \"You need more tokens.\");\r\n        tokenaddress.transferFrom(msg.sender, owner, totalPrice);\r\n        for(uint i=0; i<_tickets; i++) {\r\n            uint random = uint(keccak256(abi.encodePacked(block.timestamp, msg.sender, randNonce)))%10000;\r\n            randNonce++;\r\n            peopleTickets[msg.sender].push(random);\r\n            purchasedTickets.push(random);\r\n            winner[random] = msg.sender;\r\n            emit purchasedTicket(random, msg.sender);\r\n        }\r\n        uint ticketsQty = purchasedTickets.length;\r\n        require(ticketsQty>0, \"No ticket has been purchased.\");\r\n    }\r\n   \r\n    uint winnerscount = 1;\r\n    function UpdateNumberofWinners(uint num) public onlyowner islotterynotstarted {\r\n        winnerscount = num;\r\n    }\r\n    \r\n    function generateWinningTicket() public onlyowner islotterytimeended payable{\r\n        uint ticketsQty = purchasedTickets.length;\r\n        require(ticketsQty>0, \"No ticket has been purchased.\");\r\n        for (uint64 i = 0; i < winnerscount; i++) {\r\n            uint randomIndex = uint(uint(keccak256(abi.encodePacked(block.timestamp)))%ticketsQty);\r\n            uint winning = purchasedTickets[randomIndex];\r\n            emit winningTicket(winning);\r\n            winnerAddress = winner[winning];\r\n            winners.push(winnerAddress);\r\n             }\r\n    }\r\n    function settlePayment() public onlyowner islotterytimeended payable{\r\n        uint winnergain=100-gain;\r\n        flag=0;\r\n        uint winningamount=(winnergain*totalfundsraised/100)/winnerscount;\r\n       // uint ownerprofit=totalfundsraised-winningamount;\r\n       for (uint64 i = 0; i < winnerscount; i++) {\r\n        tokenaddress.transfer(winners[i],winningamount);\r\n       }\r\n    }\r\n    function seeTokenaddress() public view returns(address){\r\n      return tokenadd;\r\n      \r\n  }\r\n  function seeWinners() public islotterytimeended view returns(address[] memory){\r\n      return winners;\r\n      \r\n  }\r\n}",
  "sourcePath": "C:\\Users\\saide\\Desktop\\smartlottery\\smartlottery-contracts\\contracts\\smartlottery.sol",
  "compiler": {
    "name": "solc",
    "version": "0.8.10+commit.fc410830.Emscripten.clang"
  },
  "schemaVersion": "3.4.3",
  "updatedAt": "2021-12-06T02:00:58.943Z",
  "devdoc": {
    "kind": "dev",
    "methods": {},
    "version": 1
  },
  "userdoc": {
    "kind": "user",
    "methods": {},
    "version": 1
  }
}